{
  "_format": "hh-sol-artifact-1",
  "contractName": "Attendance",
  "sourceName": "contracts/Attendance.sol",
  "abi": [
    {
      "inputs": [],
      "stateMutability": "nonpayable",
      "type": "constructor"
    },
    {
      "inputs": [
        {
          "internalType": "address",
          "name": "_student",
          "type": "address"
        },
        {
          "internalType": "string",
          "name": "_name",
          "type": "string"
        }
      ],
      "name": "addStudent",
      "outputs": [],
      "stateMutability": "nonpayable",
      "type": "function"
    },
    {
      "inputs": [],
      "name": "admin",
      "outputs": [
        {
          "internalType": "address",
          "name": "",
          "type": "address"
        }
      ],
      "stateMutability": "view",
      "type": "function"
    },
    {
      "inputs": [
        {
          "internalType": "address",
          "name": "_student",
          "type": "address"
        }
      ],
      "name": "getAttendance",
      "outputs": [
        {
          "internalType": "uint256",
          "name": "",
          "type": "uint256"
        }
      ],
      "stateMutability": "view",
      "type": "function"
    },
    {
      "inputs": [],
      "name": "getStudentCount",
      "outputs": [
        {
          "internalType": "uint256",
          "name": "",
          "type": "uint256"
        }
      ],
      "stateMutability": "view",
      "type": "function"
    },
    {
      "inputs": [
        {
          "internalType": "address",
          "name": "_student",
          "type": "address"
        }
      ],
      "name": "markAttendance",
      "outputs": [],
      "stateMutability": "nonpayable",
      "type": "function"
    },
    {
      "inputs": [
        {
          "internalType": "address",
          "name": "_student",
          "type": "address"
        }
      ],
      "name": "removeStudent",
      "outputs": [],
      "stateMutability": "nonpayable",
      "type": "function"
    },
    {
      "inputs": [
        {
          "internalType": "uint256",
          "name": "",
          "type": "uint256"
        }
      ],
      "name": "studentAddresses",
      "outputs": [
        {
          "internalType": "address",
          "name": "",
          "type": "address"
        }
      ],
      "stateMutability": "view",
      "type": "function"
    },
    {
      "inputs": [
        {
          "internalType": "address",
          "name": "",
          "type": "address"
        }
      ],
      "name": "students",
      "outputs": [
        {
          "internalType": "string",
          "name": "name",
          "type": "string"
        },
        {
          "internalType": "address",
          "name": "wallet",
          "type": "address"
        },
        {
          "internalType": "uint256",
          "name": "attendanceCount",
          "type": "uint256"
        }
      ],
      "stateMutability": "view",
      "type": "function"
    }
  ],
  "bytecode": "0x6080604052348015600f57600080fd5b50336000806101000a81548173ffffffffffffffffffffffffffffffffffffffff021916908373ffffffffffffffffffffffffffffffffffffffff16021790555061143f8061005f6000396000f3fe608060405234801561001057600080fd5b50600436106100885760003560e01c806399bceadb1161005b57806399bceadb146100ff578063a6c807a91461012f578063b5ab682d14610161578063f851a4401461019157610088565b806341e0c4071461008d57806352892986146100ab5780635e8b8091146100c757806378c4798c146100e3575b600080fd5b6100956101af565b6040516100a29190610aea565b60405180910390f35b6100c560048036038101906100c09190610b77565b6101bc565b005b6100e160048036038101906100dc9190610cea565b6102ea565b005b6100fd60048036038101906100f89190610b77565b61058b565b005b61011960048036038101906101149190610b77565b6108f3565b6040516101269190610aea565b60405180910390f35b61014960048036038101906101449190610b77565b61093f565b60405161015893929190610dd4565b60405180910390f35b61017b60048036038101906101769190610e3e565b610a11565b6040516101889190610e6b565b60405180910390f35b610199610a50565b6040516101a69190610e6b565b60405180910390f35b6000600180549050905090565b600073ffffffffffffffffffffffffffffffffffffffff16600260008373ffffffffffffffffffffffffffffffffffffffff1673ffffffffffffffffffffffffffffffffffffffff16815260200190815260200160002060010160009054906101000a900473ffffffffffffffffffffffffffffffffffffffff1673ffffffffffffffffffffffffffffffffffffffff160361028d576040517f08c379a000000000000000000000000000000000000000000000000000000000815260040161028490610ed2565b60405180910390fd5b6001600260008373ffffffffffffffffffffffffffffffffffffffff1673ffffffffffffffffffffffffffffffffffffffff16815260200190815260200160002060020160008282546102e09190610f21565b9250508190555050565b60008054906101000a900473ffffffffffffffffffffffffffffffffffffffff1673ffffffffffffffffffffffffffffffffffffffff163373ffffffffffffffffffffffffffffffffffffffff1614610378576040517f08c379a000000000000000000000000000000000000000000000000000000000815260040161036f90610fa1565b60405180910390fd5b600073ffffffffffffffffffffffffffffffffffffffff16600260008473ffffffffffffffffffffffffffffffffffffffff1673ffffffffffffffffffffffffffffffffffffffff16815260200190815260200160002060010160009054906101000a900473ffffffffffffffffffffffffffffffffffffffff1673ffffffffffffffffffffffffffffffffffffffff1614610449576040517f08c379a00000000000000000000000000000000000000000000000000000000081526004016104409061100d565b60405180910390fd5b60405180606001604052808281526020018373ffffffffffffffffffffffffffffffffffffffff1681526020016000815250600260008473ffffffffffffffffffffffffffffffffffffffff1673ffffffffffffffffffffffffffffffffffffffff16815260200190815260200160002060008201518160000190816104cf9190611239565b5060208201518160010160006101000a81548173ffffffffffffffffffffffffffffffffffffffff021916908373ffffffffffffffffffffffffffffffffffffffff160217905550604082015181600201559050506001829080600181540180825580915050600190039060005260206000200160009091909190916101000a81548173ffffffffffffffffffffffffffffffffffffffff021916908373ffffffffffffffffffffffffffffffffffffffff1602179055505050565b60008054906101000a900473ffffffffffffffffffffffffffffffffffffffff1673ffffffffffffffffffffffffffffffffffffffff163373ffffffffffffffffffffffffffffffffffffffff1614610619576040517f08c379a000000000000000000000000000000000000000000000000000000000815260040161061090611357565b60405180910390fd5b600073ffffffffffffffffffffffffffffffffffffffff16600260008373ffffffffffffffffffffffffffffffffffffffff1673ffffffffffffffffffffffffffffffffffffffff16815260200190815260200160002060010160009054906101000a900473ffffffffffffffffffffffffffffffffffffffff1673ffffffffffffffffffffffffffffffffffffffff16036106ea576040517f08c379a00000000000000000000000000000000000000000000000000000000081526004016106e190610ed2565b60405180910390fd5b600260008273ffffffffffffffffffffffffffffffffffffffff1673ffffffffffffffffffffffffffffffffffffffff1681526020019081526020016000206000808201600061073a9190610a74565b6001820160006101000a81549073ffffffffffffffffffffffffffffffffffffffff02191690556002820160009055505060005b6001805490508110156108ef578173ffffffffffffffffffffffffffffffffffffffff16600182815481106107a6576107a5611377565b5b9060005260206000200160009054906101000a900473ffffffffffffffffffffffffffffffffffffffff1673ffffffffffffffffffffffffffffffffffffffff16036108e25760018080805490506107fe91906113a6565b8154811061080f5761080e611377565b5b9060005260206000200160009054906101000a900473ffffffffffffffffffffffffffffffffffffffff166001828154811061084e5761084d611377565b5b9060005260206000200160006101000a81548173ffffffffffffffffffffffffffffffffffffffff021916908373ffffffffffffffffffffffffffffffffffffffff16021790555060018054806108a8576108a76113da565b5b6001900381819060005260206000200160006101000a81549073ffffffffffffffffffffffffffffffffffffffff021916905590556108ef565b808060010191505061076e565b5050565b6000600260008373ffffffffffffffffffffffffffffffffffffffff1673ffffffffffffffffffffffffffffffffffffffff168152602001908152602001600020600201549050919050565b60026020528060005260406000206000915090508060000180546109629061105c565b80601f016020809104026020016040519081016040528092919081815260200182805461098e9061105c565b80156109db5780601f106109b0576101008083540402835291602001916109db565b820191906000526020600020905b8154815290600101906020018083116109be57829003601f168201915b5050505050908060010160009054906101000a900473ffffffffffffffffffffffffffffffffffffffff16908060020154905083565b60018181548110610a2157600080fd5b906000526020600020016000915054906101000a900473ffffffffffffffffffffffffffffffffffffffff1681565b60008054906101000a900473ffffffffffffffffffffffffffffffffffffffff1681565b508054610a809061105c565b6000825580601f10610a925750610ab1565b601f016020900490600052602060002090810190610ab09190610ab4565b5b50565b5b80821115610acd576000816000905550600101610ab5565b5090565b6000819050919050565b610ae481610ad1565b82525050565b6000602082019050610aff6000830184610adb565b92915050565b6000604051905090565b600080fd5b600080fd5b600073ffffffffffffffffffffffffffffffffffffffff82169050919050565b6000610b4482610b19565b9050919050565b610b5481610b39565b8114610b5f57600080fd5b50565b600081359050610b7181610b4b565b92915050565b600060208284031215610b8d57610b8c610b0f565b5b6000610b9b84828501610b62565b91505092915050565b600080fd5b600080fd5b6000601f19601f8301169050919050565b7f4e487b7100000000000000000000000000000000000000000000000000000000600052604160045260246000fd5b610bf782610bae565b810181811067ffffffffffffffff82111715610c1657610c15610bbf565b5b80604052505050565b6000610c29610b05565b9050610c358282610bee565b919050565b600067ffffffffffffffff821115610c5557610c54610bbf565b5b610c5e82610bae565b9050602081019050919050565b82818337600083830152505050565b6000610c8d610c8884610c3a565b610c1f565b905082815260208101848484011115610ca957610ca8610ba9565b5b610cb4848285610c6b565b509392505050565b600082601f830112610cd157610cd0610ba4565b5b8135610ce1848260208601610c7a565b91505092915050565b60008060408385031215610d0157610d00610b0f565b5b6000610d0f85828601610b62565b925050602083013567ffffffffffffffff811115610d3057610d2f610b14565b5b610d3c85828601610cbc565b9150509250929050565b600081519050919050565b600082825260208201905092915050565b60005b83811015610d80578082015181840152602081019050610d65565b60008484015250505050565b6000610d9782610d46565b610da18185610d51565b9350610db1818560208601610d62565b610dba81610bae565b840191505092915050565b610dce81610b39565b82525050565b60006060820190508181036000830152610dee8186610d8c565b9050610dfd6020830185610dc5565b610e0a6040830184610adb565b949350505050565b610e1b81610ad1565b8114610e2657600080fd5b50565b600081359050610e3881610e12565b92915050565b600060208284031215610e5457610e53610b0f565b5b6000610e6284828501610e29565b91505092915050565b6000602082019050610e806000830184610dc5565b92915050565b7f53747564656e74206e6f7420666f756e64000000000000000000000000000000600082015250565b6000610ebc601183610d51565b9150610ec782610e86565b602082019050919050565b60006020820190508181036000830152610eeb81610eaf565b9050919050565b7f4e487b7100000000000000000000000000000000000000000000000000000000600052601160045260246000fd5b6000610f2c82610ad1565b9150610f3783610ad1565b9250828201905080821115610f4f57610f4e610ef2565b5b92915050565b7f4f6e6c792061646d696e2063616e206164642073747564656e74730000000000600082015250565b6000610f8b601b83610d51565b9150610f9682610f55565b602082019050919050565b60006020820190508181036000830152610fba81610f7e565b9050919050565b7f53747564656e7420616c72656164792065786973747300000000000000000000600082015250565b6000610ff7601683610d51565b915061100282610fc1565b602082019050919050565b6000602082019050818103600083015261102681610fea565b9050919050565b7f4e487b7100000000000000000000000000000000000000000000000000000000600052602260045260246000fd5b6000600282049050600182168061107457607f821691505b6020821081036110875761108661102d565b5b50919050565b60008190508160005260206000209050919050565b60006020601f8301049050919050565b600082821b905092915050565b6000600883026110ef7fffffffffffffffffffffffffffffffffffffffffffffffffffffffffffffffff826110b2565b6110f986836110b2565b95508019841693508086168417925050509392505050565b6000819050919050565b600061113661113161112c84610ad1565b611111565b610ad1565b9050919050565b6000819050919050565b6111508361111b565b61116461115c8261113d565b8484546110bf565b825550505050565b600090565b61117961116c565b611184818484611147565b505050565b5b818110156111a85761119d600082611171565b60018101905061118a565b5050565b601f8211156111ed576111be8161108d565b6111c7846110a2565b810160208510156111d6578190505b6111ea6111e2856110a2565b830182611189565b50505b505050565b600082821c905092915050565b6000611210600019846008026111f2565b1980831691505092915050565b600061122983836111ff565b9150826002028217905092915050565b61124282610d46565b67ffffffffffffffff81111561125b5761125a610bbf565b5b611265825461105c565b6112708282856111ac565b600060209050601f8311600181146112a35760008415611291578287015190505b61129b858261121d565b865550611303565b601f1984166112b18661108d565b60005b828110156112d9578489015182556001820191506020850194506020810190506112b4565b868310156112f657848901516112f2601f8916826111ff565b8355505b6001600288020188555050505b505050505050565b7f4f6e6c792061646d696e2063616e2072656d6f76652073747564656e74730000600082015250565b6000611341601e83610d51565b915061134c8261130b565b602082019050919050565b6000602082019050818103600083015261137081611334565b9050919050565b7f4e487b7100000000000000000000000000000000000000000000000000000000600052603260045260246000fd5b60006113b182610ad1565b91506113bc83610ad1565b92508282039050818111156113d4576113d3610ef2565b5b92915050565b7f4e487b7100000000000000000000000000000000000000000000000000000000600052603160045260246000fdfea264697066735822122083e0897b633d1057b1ad997f16836c66dad064de0fc0c38779de7b3390639f9564736f6c634300081c0033",
  "linkReferences": {},
  "deployedLinkReferences": {}
}